S00B00006D61696E2E73313944
S3150800000000000220110000086D0000086D000008BD
S3150800001080B582B000AF104B7B60104B3B6007E0A9
S315080000207A68131D7B603B68191D396012681A606F
S315080000303B680B4A9342F3D30A4B3B6004E03B68A8
S315080000401A1D3A6000221A603B68074A9342F6D3A3
S3150800005000F020F8FEE700BFCC01000800000020F1
S3150800006000000020000000200000002080B400AF3F
S31508000070FEE700BF80B483B000AF786000BF7B683E
S315080000805A1E7A60002BFAD100BF00BF0C37BD4656
S3150800009080BC704780B500AF124B1B68114A43F00D
S315080000A008031360104B1B680F4A23F04073136054
S315080000B00D4B1B680C4A43F0807313600B4B1B688F
S315080000C00A4A43F4805313600948FFF7D3FF074BE6
S315080000D01B68064A23F4805313600548FFF7CAFFD6
S315080000E0ECE700BF30380240000C0240140C024016
S315080000F040420F0080B483B000AF7860FEE780B45A
S3150800010083B000AF78604FF0FF3318460C37BD4612
S3150800011080BC704780B483B000AF786039603B68B4
S315080001204FF400525A60002318460C37BD4680BC6F
S31508000130704780B483B000AF7860012318460C3747
S31508000140BD4680BC704780B485B000AFF860B96022
S315080001507A60002318461437BD4680BC704780B4C1
S3150800016085B000AFF860B9607A6000231846143786
S31508000170BD4680BC704780B485B000AFF860B960F2
S315080001807A607B6818461437BD4680BC704780B4D1
S3150800019083B000AF78604FF0FF3318460C37BD4682
S315080001A080BC704780B483B000AF786039604FF088
S315080001B0FF3318460C37BD4680BC704780B400AF85
S311080001C001231846BD4680BC70470000AD
S3150800A0A01111111111111111111111111111111192
S3150800B00011CED2C72372C93A1C3422F96CF047B064
S3150800B010AA80411BD0FD70C90CC6832A46913424E8
S3150800B02078D94D6EF258D84579878345A48E205530
S3150800B030D3DE559E3AB829DC1F6960C530A7E6D02D
S3150800B040AAC3D37A1A40F101038ACC74F834491595
S3150800B0500757172181944767002F97ACEB1376089B
S3150800B0609BB6809DDBEFC051550B6E092AC274CF83
S3150800B0700C689B550F3C80B5E522E478F21B0E243C
S3150800B080107B058F60C16292FB259C7DEC832202B2
S3150800B090D72384B8D492A0C6C4E5C6E754D3DD9DA9
S3150800B0A0465E9A2C482AE8586994D13FAAFE843B02
S3150800B0B0BC05688BA35DE777565732C60A6FAE6242
S3150800B0C0EEB91A1EA2AFC65D52C181FF18C7B532C6
S3150800B0D03C85F201BAD62D9074A4FC241B774597BB
S3150800B0E0B488CB7B483AB26212392E5BF3990301D6
S3150800B0F065D12CEEF44D236E374D4E09D15CD065E3
S503002ECE
S70508000010E2
